:020000040800F2
:10000000D0DD0020F9020008792E0008C32B00087B
:100010009D2D0008810A00086130000800000000E2
:10002000000000000000000000000000390200088D
:10003000811100080000000095020008952E0008BC
:100040001303000813030008130300081303000838
:100050001303000813030008130300081303000828
:100060001303000813030008130300081303000818
:100070001303000813030008130300081303000808
:1000800013030008130300081303000813030008F8
:10009000850A00081303000813030008130300086F
:1000A00013030008792F0008130300081303000846
:1000B00013030008130300081303000813030008C8
:1000C00013030008130300081303000813030008B8
:1000D00013030008130300081303000813030008A8
:1000E0001303000813030008130300081303000898
:1000F0001303000813030008130300081303000888
:100100001303000813030008130300081303000877
:100110001303000813030008130300081303000867
:100120001303000813030008130300081303000857
:100130001303000800000000000000001303000883
:100140001303000813030008130300081303000837
:100150001303000813030008130300081303000827
:100160001303000813030008130300081303000817
:100170001303000813030008000000000000000043
:10018000130300081303000800F002F800F044F81D
:100190000AA090E8000C82448344AAF10107DA45E2
:1001A00001D100F039F8AFF2090EBAE80F0013F0F0
:1001B000010F18BFFB1A43F00103184794530000C6
:1001C000B4530000103A24BF78C878C1FAD8520757
:1001D00024BF30C830C144BF04680C6070470000C1
:1001E0000023002400250026103A28BF78C1FBD840
:1001F000520728BF30C148BF0B607047752900F017
:100200008581632900F0F982002070471FB505F051
:1002100075F91FBD10B510BD00F04FFB1146FFF77B
:10022000F5FF02F0C3FF00F06DFB03B4FFF7F2FF30
:1002300003BC00F075FB00002C4B19680868B0E89F
:10024000F04F80F30988BFF36F8F4FF0000080F309
:10025000118870470000000008480068006880F3BB
:1002600008884FF0000080F3148862B661B6BFF3CF
:100270004F8FBFF36F8F00DF00BF00BF08ED00E0BE
:10028000DFF80C00016841F470010160704700BFA5
:1002900088ED00E0EFF30980BFF36F8F134B1A680E
:1002A0001EF0100F08BF20ED108A20E9F04F1060FB
:1002B00009B44FF0500080F31188BFF34F8FBFF3A4
:1002C0006F8F04F0FDF94FF0000080F3118809BC36
:1002D00019680868B0E8F04F1EF0100F08BFB0ECC6
:1002E000108A80F30988BFF36F8F704728000020C1
:1002F000EFF3058070470000094880470948004730
:10030000FEE7FEE7FEE7FEE7FEE7FEE7FEE7FEE7C5
:10031000FEE7FEE704480549054A064B7047000022
:10032000652F000889010008D0CD0020D0DD002015
:10033000D0D50020D0D5002053EA020C00F069800F
:100340002DE9F04B4FF00006002B1FBFB3FA83F5E9
:1003500003FA05F424FA05F65E4012BF1643B2FA1A
:1003600082F502FA05F4C5F120051EBF22FA05FC4C
:1003700044EA0C04203556EA044C4FEA144418BFF2
:10038000641C4FF000084FF00009904271EB030C21
:1003900039D3002919BFB1FA81F701FA07F6B0FA8B
:1003A00080F700FA07F6C7F120071EBF20FA07FC06
:1003B00046EA0C062037B6FBF4FCA7EB0507103F16
:1003C00007F01F0BCBF120060CFA0BFB2CFA06F6FC
:1003D00044BFB3460026202FA4BF5E464FF0000B5B
:1003E0005BEA060C08BF4FF0010B19EB0B09ABFBE6
:1003F000027C48EB0608C01B06FB02CC0BFB03CCBF
:1004000071EB0C01C1E70B46024641464846BDE888
:10041000F08B13B54FF000004FF00001AFF30080F8
:10042000BDE81C40704700000FB41CB5074B06AA7E
:100430007B4469460090059800F0BDF900206946AC
:1004400000F0CCF91CBC5DF814FB0000A90300000F
:100450002DE9F0410E460446002020622046E16866
:10046000884730B3252805D0D4E901219047206A78
:10047000401CF2E7E168204600278847050018D0B5
:10048000A5F14100192802D820354FF40067324603
:10049000294620462760FFF7B1FE40B1012804D06D
:1004A000F61D26F007060836D8E7361DD6E728469B
:1004B000DAE7206ABDE8F08170B50C460546012AEE
:1004C00005D02878800600D5EA69002302E00123E0
:1004D00005E05B1C934202D2E05C0028F9D1A869D8
:1004E000E618C01AA861286A184428622846AFF3A3
:1004F000008004E0D5E9012114F8010B9047B442D3
:10050000F8D32846AFF3008070BD00002DE9F0411C
:100510000646002410687529314616A510D0AFF3A1
:100520000080002802DA404213A507E031688A07FC
:1005300001D512A502E0490704D511A5012401E067
:10054000AFF3008000210A2206F1240709E0B0FB86
:10055000F2FCB0FBF2F302FB1C003030785418467A
:10056000491C0028F3D123462A463046BDE8F04115
:1005700000F0C2B8000000002D0000002B000000B9
:100580002000000040EA0103024630B59B0710D16D
:100590004FF0013400E008C208C91D1B9D4315EA55
:1005A000C41FF8D013F0FF0102F8011B0DD01B0A85
:1005B000F8E711F8013B002B02F8013B05D011F8D8
:1005C000013B002B02F8013BF3D130BD10B5431CB9
:1005D00002E010F8011B71B18107FAD14FF001322E
:1005E00002C88C1A8C4314EAC211F9D0C01A0A0648
:1005F00003D0C01E10BDC01A10BD0A0401D0801E59
:1006000010BD0902FCD0401E10BD032A40F230800C
:1006100010F0030C00F0158011F8013BBCF1020F43
:10062000624498BF11F801CB00F8013B38BF11F8C4
:10063000013BA2F1040298BF00F801CB38BF00F8DB
:10064000013B11F0030300F0E480083AC0F0088099
:1006500051F8043B083A51F804CBA0E80810F5E73C
:10066000121D5CBF51F8043B40F8043BAFF300801F
:10067000D20724BF11F8013B11F801CB48BF11F894
:10068000012B24BF00F8013B00F801CB48BF00F864
:10069000012B704702F0FF0343EA032242EA0242C1
:1006A00000F0EBB84FF0000200B5134694469646B2
:1006B000203922BFA0E80C50A0E80C50B1F1200175
:1006C000BFF4F7AF090728BFA0E80C5048BF0CC023
:1006D0005DF804EB890028BF40F8042B08BF704781
:1006E00048BF20F8022B11F0804F18BF00F8012BF3
:1006F00070477047704770472DE9F0470D4699469F
:100700009246044600F124080168880604D5E06991
:1007100021F01001216000E00120A84201DD471B0B
:1007200000E00027A1697A1902EB0900081AA0610C
:100730002078C00602D42046AFF30080002608E0EF
:10074000D4E901211AF806009047206A401C761C63
:1007500020624E45F4DB2078C0060AD52046AFF370
:10076000008006E0D4E9012130209047206A401C37
:100770002062381EA7F10107F4DC07E0D4E901216B
:1007800018F805009047206A401C2062281EA5F139
:100790000105F3DC2046AFF300802078000602D587
:1007A0000220BDE8F0870120FBE7000001694A1C38
:1007B00002610878704700B58FB0CDE901310021A2
:1007C000059105497944CDE9031011466846FFF7C4
:1007D0003FFE0FB000BD0000E5FFFFFF0A6802F812
:1007E000010B0A60704710B5436913B1AFF3008085
:1007F00001E0FFF761FE012010BD127800F1240135
:100800000A7000224A700122EDE711684FF0FF32B2
:10081000E9E710B5203AC0F00B80B1E81850203A53
:10082000A0E81850B1E81850A0E81850BFF4F5AF90
:100830005FEA027C24BFB1E81850A0E8185044BF1A
:1008400018C918C0BDE810405FEA827C24BF51F887
:10085000043B40F8043B08BF7047D20728BF31F87B
:10086000023B48BF11F8012B28BF20F8023B48BFCC
:1008700000F8012B70474FF000020429C0F01280ED
:1008800010F0030C3FF410AFCCF1040CBCF1020FDC
:1008900018BF00F8012BA8BF20F8022BA1EB0C0118
:1008A000FFF702BF5FEAC17C24BF00F8012B00F80C
:1008B000012B48BF00F8012B7047754600F02CF85B
:1008C000AE4605006946534620F00700854618B03D
:1008D00020B5FFF71FFDBDE820404FF000064FF0A8
:1008E00000074FF000084FF0000B21F00701AC4665
:1008F000ACE8C009ACE8C009ACE8C009ACE8C00984
:100900008D46704710B50446AFF300802046BDE821
:100910001040FFF78ABC00000048704770CD0020EF
:1009200001491820ABBEFEE726000200704738B52B
:1009300004462046FFF74AFE05466B4640F2B442A5
:100940002946204602F02CFA009838BD10B586B032
:100950000446012002F0A5FB01F00EFA00200090F1
:100960000294012003900220049005A9684601F03A
:1009700057F900B107E001F0A9F9002002F091FB5E
:10098000012006B010BD01F0A1F9002002F089FBA2
:100990000020F6E701460C2920D2DFE801F0060925
:1009A0000B0D0F11131517191B1D4FF00060704729
:1009B0000C48FCE70C48FAE70C48F8E70C48F6E767
:1009C0000C48F4E70C48F2E70C48F0E70C48EEE777
:1009D0000C48ECE70C48EAE70C48E8E74FF0016008
:1009E000E5E70000004000080080000800C00008A3
:1009F00000000108000002080000040800000608CA
:100A00000000080800000A0800000C0800000E089A
:100A10002DE9F04706460F469046BA46012002F0FF
:100A200040FB01F0A9F90024002518E04FF47A708A
:100A300000F0D0FC8146B9F1000F00D019E05AF85F
:100A400024C006EB850162460023022001F048F92C
:100A50008146B9F1000F00D00BE0641C6D1C4445C9
:100A6000E4D301F033F9002002F01BFB0120BDE8C4
:100A7000F08701F02BF9002002F013FB0020F6E7CD
:100A800000BFFEE710B5024800F0A9FD10BD000050
:100A9000AC02002002461068401C40B95068401C5F
:100AA00028B94FF0FF300860486000207047D2E955
:100AB0000003184408605068486014E0104B086850
:100AC0005B68984202D34FF0FF30EFE70868001DE3
:100AD0000B4B1B68C0584860094B08681B68C0581E
:100AE0004B6818440860064B08681B68C058401CD7
:100AF0000028E3D1D1E90003C01A08600020D5E73F
:100B000040CA00200146124A08685268904202D347
:100B10004FF0FF30704712E00D4A0868526890426B
:100B200002D34FF0FF30F5E70868001D084A12684D
:100B300080584860064A0868126880580860044A6D
:100B4000086812688058401C0028E5D100BFE1E722
:100B500040CA0020F0B58BB00646002008900990EE
:100B60000A900690079000900190029003906D46C5
:100B700001AC4FF44C719F48FFF794FD9E48FFF77E
:100B800009FF0746012205A900F028FA9B48FFF754
:100B900001FF0746012204A900F020FA059800F0A1
:100BA0000F000A2842D1049800F00F000A283DD116
:100BB0000121049801EB10100599B0EB111F09D128
:100BC0004FF400308B4948608B48FFF7E3FE8949BA
:100BD000086061E00121059801EB10100499B0EB69
:100BE000111F09D14FF40030824948608348FFF754
:100BF000D1FE804908604FE0059800090499B0EBE8
:100C0000111F09DA4FF400307A4948607A48FFF73B
:100C1000C1FE784908603FE04FF4003075494860F4
:100C20007648FFF7B7FE7349086035E0059800F095
:100C30000F000A280ED1049800F00F000F2809D1E8
:100C40004FF400306B4948606B48FFF7A3FE6949D9
:100C5000086021E0059800F00F000F280ED10498DD
:100C600000F00F000A2809D14FF4003061494860B4
:100C70006248FFF78FFE5F4908600DE04FF40030D7
:100C80005C4948605C48FFF785FE5A490860009857
:100C900000F00F001030009001210098B1EB101F00
:100CA0002DD1286820F00F000A302860287800F045
:100CB0000F00103028604F484068A0F598606060D1
:100CC0004FF4986020606420ADF80C000C20ADF863
:100CD0000E0000BF4848FFF739FE0028FAD000BFD9
:100CE0004449042208686946FFF792FE0028F7D0BD
:100CF00040486168C1603F492068886075E03D49AF
:100D000004220868694600F069F9002723E03949A0
:100D10000968103107EB470201EB8200032208A9A2
:100D200000F05CF90898401CA0B10998401C88B1FB
:100D300006A908A8FFF7AEFE002802DA02200BB0D1
:100D4000F0BD2C481030069940F8371000EBC70072
:100D5000079941607F1C642FD9DB2046FFF7D2FE44
:100D6000002803DA606830600120E8E72148406825
:100D70006421B0FBF1F06168884230D31E48FFF770
:100D800009FE1C490968884214D11C48FFF7DEFDA2
:100D90001A48FFF7FFFD0746286802094FF40031A3
:100DA000384600F0A5F800281FDA4FF40030306014
:100DB0000920C4E71048FFF7C9FD0F48FFF7EAFD17
:100DC0000746286802094FF40031384600F090F8D1
:100DD00000280ADA4FF4003030600920AFE70548F8
:100DE0006168C1600349206888600248C06830605B
:100DF0000020A4E740CA002000000C0800000E08F4
:100E00002DE9FC4781460F4690461D46012264218C
:100E1000484600F061F90446002C01DB642C02DD39
:100E20000320BDE8FC87164850F8340020B94FF085
:100E3000FF300090019008E0114850F83400009015
:100E40000F4800EBC40040680190A3B26A464146D7
:100E5000384600F0CFF80646701C18B9002028600C
:100E60000420DEE7B01C28B905481038C0682860A7
:100E70000520D6E702481038C06828600020D0E777
:100E800050CA00202DE9F04106460F4615460022C3
:100E90006421304600F020F90446002C01DB642C6C
:100EA00002DD0320BDE8F081104850F8340030B96D
:100EB0000E4800EBC400406808B90620F2E70B4872
:100EC00000EBC4004068A84201D00720EAE70749C8
:100ED00051F83410054A103A12688818C5F38F0289
:100EE000394600F07BF80020DCE7000050CA002003
:100EF0002DE9F04188B006460F4690466420ADF8D3
:100F00001C000C20ADF81E00049820F00F000A30E1
:100F1000049008F10100049960F31F1104914FF44B
:100F20009865002442E02C4850F83400E8B3BD42F4
:100F300004D36FF0010008B0BDE8F08101952648A8
:100F400000EBC4004068029023481038006810305D
:100F500004EB440100EB81008068039000BF04EBC8
:100F6000440106EB810101F11000032201A9FFF702
:100F70004FFD0028F3D000BF174B53F83430DFF893
:100F800058C0ACF1100CDCF800C003EB0C01029B64
:100F90009A087019FFF73CFD0028EDD00E48019922
:100FA00040F83410029808300544641C642CBADB05
:100FB00009481038476006608560791BC160059557
:100FC000C168069100BF042204A93046FFF720FD46
:100FD0000028F8D00020AEE750CA002010B5034624
:100FE000002004E053F8204041F82040401C90428B
:100FF000F8DB10BD2DE9F05F8046894614461E4699
:10100000344D4F46B8F1000F00D01CB94FF0FF30FF
:10101000BDE8F09F07F110006968814202D26FF0CD
:101020000100F5E7D5F800B02A4908392068496879
:10103000884204D8D4E9000100EB010A0AE02068E4
:10104000401C38B96068401C20B906EB46001021EE
:1010500001EB800A00BF1F4B083B29681B6819443D
:1010600001F10800BA084146FFF7D2FC0028F2D08F
:10107000286808302060C4F80490164808302168B9
:1010800040F8361000EBC6006168416000BF1149AE
:101090000839096801EB0A0002222146FFF7B8FC73
:1010A0000028F4D007F110006968081A6860286801
:1010B00038441030286000BF06490839096801EB40
:1010C0000B0002222946FFF7A3FC0028F4D00020E1
:1010D0009EE7000048CA00202DE9FF4780460D46E4
:1010E00016464046FFF723FC03900398B0FBF5F14A
:1010F00005FB110084B200272048006800F11009A8
:1011000000BF04EB440109EB810003226946FFF7AD
:1011100065FFDDE90201884203D1204604B0BDE845
:10112000F087601C84B294FBF5F005FB104084B29C
:10113000781CC7B2AF4202DD4FF0FF30EEE70098F7
:10114000401C18B10198401C0028DAD10CB9632466
:1011500001E0601E84B27EB100BF08490968103109
:1011600004EB440201EB820101F10800012203A912
:10117000FFF74EFC0028F0D02046CFE740CA002001
:10118000704772B600BFFEE710B5002201B909E052
:10119000012901D10A0205E0022901D10A0201E078
:1011A0004FF440720E4B1B6823F440730C4C2360C9
:1011B00023461B681343236023461B6823F0F80370
:1011C000236023461B68022444EAC0042343044CE2
:1011D000236023461B6843F48033236010BD000066
:1011E000103C02401C48006800F40070B0B11A487E
:1011F000006820F400701849086000BF08460068C5
:1012000040F4006008600846006820F40060086050
:1012100000BF0846006840F4007008600E4800688F
:1012200000F48060B0B10C48006820F480600A4986
:10123000086000BF0846006840F480500860084617
:10124000006820F48050086000BF0846006840F441
:101250008060086070470000003C02400A4A126843
:1012600022F44072084B1A601A46126842F00402D7
:101270001A601A4612684FF4803343EA00231A4377
:10128000014B1A6070470000103C0240074A126888
:1012900022F44072054B1A601A4612681A601A4608
:1012A000126842F001021A6001707047103C02405F
:1012B00010B50D49096821F440710B4C216021469D
:1012C000096841F4407121602146096841F001013B
:1012D0002160026000BF00BF00BFBFF36F8F00BF7F
:1012E00000BF00BF436010BD103C0240084A1268B6
:1012F00022F44072064B1A601A46126842F4807259
:101300001A601A46126842F001021A6001807047A2
:10131000103C0240084A126822F44072064B1A60E0
:101320001A46126842F400721A601A46126842F0B5
:1013300001021A6001607047103C024023480068B7
:1013400000F0100040B12248C06940F01000204970
:10135000C86110201D4908601C48006800F020008A
:1013600040B11B48C06940F008001949C8612020FD
:10137000164908601548006800F0400040B1144864
:10138000C06940F004001249C86140200F4908605C
:101390000E48006800F0800040B10D48C06940F080
:1013A00002000B49C86180200849086007480068AE
:1013B00000F0020040B10648C06940F02000044936
:1013C000C861022001490860704700000C3C0240DF
:1013D0004403002070B50446002500201449C8616C
:1013E00000F0DEFD054609E0601C38B124B100F0D4
:1013F000D7FD401BA04201D9032070BD0D480068F5
:1014000000F480300028EFD10A48006800F00100A5
:1014100010B10120074908600648006800F0F2009A
:1014200018B1FFF78BFF0120E7E70020E5E7000098
:10143000440300200C3C024010B5024692F82030D4
:10144000012B01D0022B06D11068406908431468B3
:101450006061002010BD506A40F48020506201207D
:10146000F8E7704770B5044694F82050012D01D07C
:10147000022D7DD151B92068C06800F0030080B909
:10148000606A40F400106062012070BD206800694D
:1014900000F0030028B9606A40F400106062012087
:1014A000F3E7206800F5D87000EB0110006800F049
:1014B00004009060906840B9206800F5D87000EB97
:1014C00001100068400D106007E0206800F5D8703A
:1014D00000EB01100068C0085060206800F5D8706B
:1014E00000EB0110006800F00200D060206800F5F9
:1014F000D87000EB0110406800F00F001061206808
:1015000000F5D87000EB0110406800F47F40000A3D
:101510009061206800F5D87000EB01104068000C65
:101520005061206800F5D87000EB011080681870D9
:10153000206800F5D87000EB0110806800F47F404F
:10154000000A5870206800F5D87000EB0110806820
:1015500000F47F00000C9870206800F5D87000EB54
:1015600001108068000ED870206800F5D87000E087
:101570002FE000EB0110C0681871206800F5D870EA
:1015800000EB0110C06800F47F40000A5871206829
:1015900000F5D87000EB0110C06800F47F00000C6B
:1015A0009871206800F5D87000EB0110C068000E3B
:1015B000D87131B92068C06840F020002668F0601A
:1015C00005E02068006940F02000266830610020B6
:1015D0005BE7606A40F480206062012055E72DE9F6
:1015E000F05F04460025206846692068D0F8049022
:1015F000206887682068D0F80CA02068D0F810B068
:101600002068D0F8188006F00100002855D007F0B7
:101610000100C0B101202168886007F0020018B104
:10162000204600F0CDFA0EE007F0040010B145F4BA
:10163000006508E007F0080010B145F4805502E0AD
:10164000204600F0BCFA07F48070C8B14FF48070F7
:101650002168886007F4007018B1204600F0B2FAE3
:101660000EE007F4806010B145F4005508E007F47F
:10167000006010B145F4804502E0204600F0A1FA78
:1016800007F48030C8B14FF480302168886007F4D7
:10169000003018B1204600F097FA0EE007F48020E1
:1016A00010B145F4004508E007F4002010B145F4FE
:1016B000803502E0204600F086FA06F0080038B1D6
:1016C0000AF0100020B145F4007510202168C860B0
:1016D00006F0040040B10AF0080028B10820216893
:1016E000C860204600F00CFA06F0020038B120680D
:1016F000C06800F0030010B1204600F003FA06F0C5
:10170000400038B10BF0100020B145F48065102086
:101710002168086106F0200040B10BF0080028B1F4
:10172000082021680861204600F046FA06F0100003
:1017300038B12068006900F0030010B1204600F0C5
:101740003CFA06F4003040B109F0100028B1102036
:1017500021684860204600F031FA06F4803040B13C
:1017600009F0080028B1082021684860204600F0F0
:101770002CFA06F4004088B309F0040078B306F4AC
:10178000807020B108F0010008B145F0010506F4B1
:10179000007020B108F0020008B145F0020506F41F
:1017A000806020B108F0040008B145F0040506F49B
:1017B0000060A0B108F0700088B108F07000402807
:1017C00017D006DC10280BD020280CD0302819D1D7
:1017D0000CE0502810D0602814D110E01DE019E072
:1017E00045F008050FE045F010050CE045F0200538
:1017F00009E045F0400506E045F0800503E045F4CA
:10180000807500E000BF00BF2068806920F0700094
:10181000216888610420216848602DB1606A2843EE
:1018200060622046FFF71DFEBDE8F09F70B50446DC
:101830000CB9012070BD94F8200010B9204600F0CA
:10184000AFF82068006840F001002168086000F0EF
:10185000A7FB05460DE000F0A3FB401B0A2808D9B2
:10186000606A40F400306062052084F820000120A6
:10187000E0E72068406800F001000028EBD0206815
:10188000006820F002002168086000F089FB05462E
:101890000DE000F085FB401B0A2808D9606A40F47F
:1018A00000306062052084F820000120C2E7206833
:1018B000406800F002000028EBD1207E012806D10C
:1018C0002068006840F080002168086005E020681A
:1018D000006820F0800021680860607E012806D141
:1018E0002068006840F040002168086005E020683A
:1018F000006820F0400021680860A07E012806D121
:101900002068006840F020002168086005E0206839
:10191000006820F0200021680860E07E012806D1E0
:101920002068006820F010002168086005E0206849
:10193000006840F0100021680860207F012806D16F
:101940002068006840F008002168086005E0206811
:10195000006820F0080021680860607F012806D137
:101960002068006840F004002168086005E02068F5
:10197000006820F0040021680860D4E902010843EF
:1019800021690843616908436168491E0843216869
:10199000C86100206062012084F82000002049E72F
:1019A00010B586B00446142101A8FEF77BFE4F490E
:1019B0002068884242D14E480068401C4C4908606B
:1019C0000846006801280FD100BF00200090494858
:1019D000006840F00070474908600846006800F061
:1019E0000070009000BF00BF00BF00200090414881
:1019F0001038006840F002003E491039086008467F
:101A0000006800F00200009000BF00BF4FF440707B
:101A100001900220029000200390032004900920EE
:101A2000059001A9344800F0C1F9002205211420D5
:101A300000F070FB142000F05DFB55E02F4920689A
:101A4000884251D100BF002000902A48006840F031
:101A50008060284908600846006800F080600090B7
:101A600000BF00BF22480068401C214908600846AA
:101A7000006801280FD100BF002000901D480068B9
:101A800040F000701B4908600846006800F00070D4
:101A9000009000BF00BF00BF002000901548103824
:101AA000006840F0020013491039086008460068D9
:101AB00000F00200009000BF00BF4FF440500190C2
:101AC000022002900020039003200490092005903A
:101AD00001A9094800F06AF900220521402000F020
:101AE00019FB402000F006FB06B010BD006400406A
:101AF0000C00002040380240000402400068004012
:101B00007047000010B58CB004460020029003908E
:101B100004902548844220D16B4605AA0021204626
:101B2000FFF7A0FC059880B2ADF808000998C0B294
:101B30008DF80A009DF80A2069460DF10B00FEF7AA
:101B400064FD1A48006820B1184B02A807C81B683A
:101B5000984702212046FFF76FFC1548844220D1A8
:101B60006B4605AA00212046FFF77CFC059880B251
:101B7000ADF808000998C0B28DF80A009DF80A2057
:101B800069460DF10B00FEF740FD0A48006820B1E0
:101B9000084B02A807C81B68984702212046FFF798
:101BA0004BFC0CB010BD0000AC0200200400002073
:101BB000D40200200800002070477047704770472B
:101BC00070477047704770477047704710B50446BC
:101BD0000CB9012010BD607920B900202071204689
:101BE00000F004F8012060710020F3E708B50A4A0C
:101BF000016891420FD100BF002100910749096897
:101C000041F48051054A11601146096801F4805180
:101C1000009100BF00BF08BD0030024030380240D4
:101C20002DE9F04104460E460127002500BF254856
:101C3000007E012802D10220BDE8F0810120214967
:101C4000087600BF4CF25030FFF7C4FB0746002F68
:101C500031D1401E3060206801280FD1207C61689E
:101C6000FFF7FCFA4CF25030FFF7B4FB074616487A
:101C7000006820F00400144908601AE0A56812E02A
:101C8000217C2846FFF780FA4CF25030FFF7A2FB88
:101C900007460D48006820F0FA000B4908600FB1B4
:101CA000356005E06D1CD4E902100844A842E7D86D
:101CB00000BFFFF797FA00BF00200249087600BF77
:101CC0003846B9E744030020103C0240034800684E
:101CD00040F000400149086000207047103C02407D
:101CE0002DE9F04106460F4614461D464FF0010807
:101CF00000BF1F48007E012802D10220BDE8F0810C
:101D000001201B49087600BF4CF25030FFF762FB00
:101D10008046B8F1000F23D126B9E1B23846FFF76B
:101D2000B5FA12E0012E04D1A1B23846FFF7DEFA6F
:101D30000BE0022E04D121463846FFF7EBFA04E00F
:101D400022462B463846FFF7B3FA4CF25030FFF7E5
:101D500041FB80460748006820F001000549086003
:101D600000BF00200249087600BF4046C6E70000D9
:101D700044030020103C024000200949096801F09A
:101D8000004159B10749064A0C3A116006491160F1
:101D90000349096801F0004101B1012070470000CA
:101DA000103C024023016745AB89EFCDF8B50246F0
:101DB0000B460025002400200021D6E0012606FA6B
:101DC00001F51E6806EA0504AC4274D11E7906F0DE
:101DD0000306012E04D01E7906F00306022E13D14D
:101DE00090684F000326BE40B0434F00DE68BE40FF
:101DF00030439060506801268E40B0431E79C6F390
:101E000000168E40304350601E7906F00306032E04
:101E100009D0D0684F000326BE40B0434F009E68F3
:101E2000BE403043D0601E7906F00306022E13D167
:101E3000CF0802F1200656F827004E07F70E0F26AE
:101E4000BE40B0434F07FF0E1E69BE403043CF086F
:101E500002F1200646F8270010684F000326BE4016
:101E6000B0431E7906F003064F00BE4030431060B9
:101E70005E6806F44036002E76D000BF002600963D
:101E80003C4E366846F480463A4F3E603E463668E1
:101E900006F48046009600BF00BF374E8F0856F804
:101EA00027008E07370F0F26BE40B043334EB24295
:101EB00002D1002624E057E0314EB24201D1012682
:101EC0001EE0304EB24201D1022619E02E4EB2423F
:101ED00001D1032614E02D4EB24201D104260FE0B9
:101EE0002B4EB24201D105260AE02A4EB24201D160
:101EF000062605E0284EB24201D1072600E008265A
:101F00008F073F0FBE4030431B4E8F0846F8270017
:101F1000224E3068A0435E6806F4801606B1204366
:101F20001E4E3060361D3068A0435E6806F4001611
:101F300006B12043194E361D3060184E361F3068EA
:101F4000A0435E6806F4003606B12043134E361FE8
:101F50003060361F3068A0435E6806F4803606B1F4
:101F600020430E4E083E3060491C1029FFF426AF76
:101F7000F8BD00004438024008380140000002402B
:101F80000004024000080240000C02400010024021
:101F90000014024000180240001C0240083C0140AE
:101FA00001480068704700001800002003480068DE
:101FB0000349097808440149086070471800002067
:101FC0002000002010B50D48006840F400700B4957
:101FD00008600846006840F48060086008460068B1
:101FE00040F480700860032000F0D2F80F2000F069
:101FF00007F800F055F8002010BD0000003C02403A
:10200000F0B587B004460026002700BF00200090EE
:102010001E48006840F001001C490860084600683E
:1020200000F00100009000BF00BF01A902A800F06D
:1020300085F900F0ABF946001548B6FBF0F0471EF5
:1020400014481549086040F2E7311348C160476001
:10205000002101618160816100F050FC054695B965
:102060000D4800F07FFC05466DB9192000F042F8DC
:10207000102C07D200222146192000F04BF8074807
:10208000046000E00125284607B0F0BD4438024056
:1020900040420F0000000140FC0200201C00002014
:1020A00008B500BF002000901148006840F480404F
:1020B0000F4908600846006800F48040009000BFA7
:1020C00000BF00BF00200090081F006840F0805053
:1020D000091F08600846006800F08050009000BFAB
:1020E00000BF00220F21901E00F014F808BD000070
:1020F0004438024001460846002809DB00F01F036F
:1021000001229A4043099B0003F1E023C3F8002118
:1021100000BF70472DE9F05F80460D461646002748
:1021200000F0A0FF074639462A46334601F0070073
:10213000C0F1070ABAF1040F02D94FF0040A01E016
:10214000C0F1070AD14600F1040ABAF1070F02D222
:102150004FF0000A01E0A0F1030AD4464FF0010A53
:102160000AFA09FAAAF1010A0AEA020A0AFA0CFAB8
:102170004FF0010B0BFA0CFBABF1010B0BEA030B5D
:102180004AEA0B042146404600F074FFBDE8F09F88
:1021900000BF00F00702064B19684FF6FF03194015
:1021A000044B0B4343EA0221014B196000BF704707
:1021B0000CED00E00000FA0570B504460D460CB9C0
:1021C000012070BD5848006800F00700A84209D2FD
:1021D00055490D700846006800F00700A84201D07C
:1021E0000120EEE7207800F0020002281DD12078BF
:1021F00000F00400042805D14C48006840F4E05089
:102200004A490860207800F00800082805D14748AE
:10221000006840F46040454908604448006820F088
:10222000F000A168084341490860207800F00100EF
:10223000A8B36068012807D13C4808380068C0F39B
:102240004040B8B90120BCE76068022802D060684D
:10225000032807D1354808380068C0F3406048B902
:102260000120AEE7314808380068C0F3400008B9E3
:102270000120A6E72D48006820F0030061680843AC
:102280002A490860FFF78CFE064609E0FFF788FE42
:10229000801B41F28831884202D9032091E707E090
:1022A0002248006800F00C006168B0EB810FEDD1AE
:1022B0001D48006800F00700A84209D91A490D70AE
:1022C0000846006800F00700A84201D0012078E726
:1022D000207800F00400042807D11448006820F496
:1022E000E050E168084311490860207800F00800D8
:1022F000082808D10D48006820F46040216940EAB0
:10230000C1000A49086000F051F808490968C1F3A2
:102310000311074A515CC840064908600648006836
:10232000FFF76EFE00204CE7003C024008380240F8
:102330002C550008240000201C0000200F22026001
:102340000D4A126802F0030242600B4A126802F062
:10235000F0028260084A126802F4E052C260064A43
:10236000126802F46042D2080261044A126802F064
:1023700007020A607047000008380240003C024033
:1023800001480068704700002400002000B5FFF7F6
:10239000F7FF04490968C1F34231034A515CC84060
:1023A00000BD0000083802403C5500082DE9F04708
:1023B000002400250026A1462548006800F00C00F6
:1023C00020B1042805D008283AD105E0DFF8849030
:1023D00039E0DFF8849036E01D48001F006800F007
:1023E0003F041B48001F006800F4800078B11A48C1
:1023F0001749091F0968C1F38811A0FB0170014644
:10240000224600233846FDF797FF05460EE01148A7
:102410000F49091F0968C1F38811A0FB017001462B
:10242000224600233846FDF787FF05460848001F6F
:102430000068C0F30140401C4600B5FBF6F902E01D
:10244000DFF8109000BF00BF4846BDE8F0870000ED
:10245000083802400024F40040787D01F8B50446B5
:102460000CB90120F8BD207800F00100002874D0DC
:10247000F948006800F00C0004280DD0F648006808
:1024800000F00C00082813D1F348001F006800F486
:102490008000B0F5800F0BD1EF4808380068C0F31A
:1024A0004040002859D06068002856D10120D9E763
:1024B00000BF6068B0F5803F08D1E7480838006881
:1024C00040F48030E449083908601EE06068B0F5E7
:1024D000A02F0DD1E0480838006840F48020DE4984
:1024E000083908600846006840F4803008600CE055
:1024F000D9480838006820F48030D7490839086086
:102500000846006820F48020086000BF606890B131
:10251000FFF746FD054606E0FFF742FD401B642835
:1025200001D903209EE7CC4808380068C0F340403A
:102530000028F1D011E0FFF733FD054606E0FFF774
:102540002FFD401B642801D903208BE7C2480838BF
:102550000068C0F340400028F1D1207800F002006C
:1025600002285FD1BC48006800F00C0058B1BA489E
:10257000006800F00C0008281CD1B748001F006854
:1025800000F48000B0B9B44808380068C0F34000D7
:1025900020B1E068012801D0012063E7AE48083887
:1025A000006820F0F800216940EAC100AA49083912
:1025B000086037E0E06800B30120A8490860FFF731
:1025C000EFFC054606E0FFF7EBFC401B022801D9B3
:1025D000032047E7A04808380068C0F340000028FF
:1025E000F1D09D480838006820F0F800216940EAE1
:1025F000C10099490839086014E000209749086033
:10260000FFF7CEFC054606E0FFF7CAFC401B022898
:1026100001D9032026E7904808380068C0F340003D
:102620000028F1D1207800F0080008282CD160693A
:10263000A8B101208A490860FFF7B2FC054606E010
:10264000FFF7AEFC401B022801D903200AE78248AD
:102650006C300068C0F340000028F1D014E0002086
:102660007F490860FFF79CFC054606E0FFF798FCF1
:10267000401B022801D90320F4E677486C3000683B
:10268000C0F340000028F1D1207800F004000428B5
:1026900070D1002770483830006800F0805090B941
:1026A00000BF002000906C483830006840F0805037
:1026B0006949383108600846006800F08050009091
:1026C00000BF00BF01276748006800F48070B0B900
:1026D0006448006840F4807062490860FFF760FC5D
:1026E000054606E0FFF75CFC401B022801D90320E9
:1026F000B8E65C48006800F480700028F2D000BFA3
:10270000A068012808D154486830006840F00100F2
:102710005149683108601DE0A06805280DD14E4878
:102720006830006840F004004B4968310860084692
:10273000006840F0010008600CE04748683000681D
:1027400020F001004449683108600846006820F024
:102750000400086000BFA068A8B1FFF721FC05468F
:1027600009E0FFF71DFC401B41F28831884202D985
:10277000032077E626E0384868300068C0F3400060
:102780000028EED013E0FFF70BFC054608E0FFF74A
:1027900007FC401B41F28831884201D9032061E6E1
:1027A0002D4868300068C0F340000028EFD1012FA9
:1027B00007D129483830006820F080502649383148
:1027C000086000BFA069002845D02348006800F0D9
:1027D0000C0008285DD0A069022845D100201F49BF
:1027E0000866FFF7DDFB054606E0FFF7D9FB401B57
:1027F000022801D9032035E6174808380068C0F3DD
:1028000040600028F1D1D4E907010843616A40EA39
:1028100081110122A06AC2EB500041EA00412C2044
:10282000005D41EA00600C49091F086001200B4966
:102830000866FFF7B5FB054606E0FFF7B1FB401B56
:10284000022801D903200DE6034808380068C0F3C8
:1028500040600028F1D049E00838024000004742BB
:10286000800E474200700040002021490866FFF7B3
:1028700097FB054606E0FFF793FB401B022801D9B2
:102880000320EFE51B480068C0F340600028F2D148
:102890002CE0A069012800D1E4E51648001D066877
:1028A000A069012820D006F48001E06981421BD193
:1028B00006F03F01206A814216D147F6C0703040D1
:1028C000616AB0EB811F0FD106F440310122A06A8A
:1028D000C2EB5000B1EB004F06D106F070612C2026
:1028E000005DB1EB006F01D00120BBE50020B9E530
:1028F00000004742003802407047704710B5044658
:102900000CB9012010BD94F83D0028B9002084F8CE
:102910003C00204600F025F8022084F83D00211DEF
:10292000206800F031FB012084F8460000BF84F8E5
:102930003E0001213F200155402001554120015515
:1029400000BF00BF012084F842004320015544200D
:1029500001554520015500BF012084F83D000020AD
:10296000D0E77047014691F83D00012801D00120D1
:102970007047022081F83D000868C06840F00100FF
:102980000B68D8601A4B086898421BD00868B0F1F1
:10299000804F17D0174B0868984213D0164B086821
:1029A00098420FD0154B086898420BD0144B08681A
:1029B000984207D0134B0868984203D0124B08681E
:1029C00098420CD10868806800F00702062A0CD0F3
:1029D0000868006840F001000B68186005E00868AE
:1029E000006840F001000B6818600020C0E700009C
:1029F000000001400004004000080040000C0040BE
:102A0000000401400040014000180040704710B52C
:102A1000044620680069C0F34000D8B12068C0684F
:102A2000C0F34000B0B16FF00200216808610120DE
:102A300020772068806900F0030018B12046FFF776
:102A4000E5FF05E0204600F0ADF8204600F0ABF8C9
:102A50000020207720680069C0F38000D8B120688A
:102A6000C068C0F38000B0B16FF004002168086155
:102A7000022020772068806900F4407018B1204659
:102A8000FFF7C4FF05E0204600F08CF8204600F078
:102A90008AF80020207720680069C0F3C000D8B110
:102AA0002068C068C0F3C000B0B16FF008002168B2
:102AB0000861042020772068C06900F0030018B185
:102AC0002046FFF7A3FF05E0204600F06BF8204604
:102AD00000F069F80020207720680069C0F300103A
:102AE000D8B12068C068C0F30010B0B16FF010001A
:102AF00021680861082020772068C06900F44070D0
:102B000018B12046FFF782FF05E0204600F04AF8A2
:102B1000204600F048F8002020772068006900F087
:102B2000010058B12068C06800F0010030B16FF0BA
:102B3000010021680861204600F036F8206800692D
:102B4000C0F3C01058B12068C068C0F3C01030B1E5
:102B50006FF08000216808612046FFF7CDFE2068F5
:102B60000069C0F3801058B12068C068C0F38010BD
:102B700030B16FF0400021680861204600F020F875
:102B800020680069C0F3401058B12068C068C0F3E5
:102B9000401030B16FF02000216808612046FFF737
:102BA000ACFE10BD7047704710B50446034920685D
:102BB000884201D1FFF7FAF910BD00000000014082
:102BC000704700BFFEE7000010B50F480F490860CE
:102BD0000320486000210D488160C1604FF400214E
:102BE00001614FF440114161002101764176817607
:102BF0000121C176002101774177FEF717FE08B168
:102C0000FEF7BFFA10BD000000640040AC020020D7
:102C100010B50B480B490860102048600021094896
:102C20008160C16001614161017641768176C17642
:102C300001774177FEF7FAFD08B1FEF7A2FA10BD61
:102C400000680040D402002010B50548054908601E
:102C50000846FEF7BBFF08B1FEF793FA10BD00006F
:102C6000003002401000002010B5044A0021044842
:102C700000F026FB0349086010BD0000085500085D
:102C80007D2E00080000002000B587B0142102A8A6
:102C9000FDF708FD00BF002001903B48006840F0B0
:102CA0000400394908600846006800F004000190FB
:102CB00000BF00BF00BF002001900846006840F040
:102CC000800008600846006800F08000019000BFA6
:102CD00000BF00BF002001900846006840F00100DE
:102CE00008600846006800F00100019000BF00BFC6
:102CF00000BF002001900846006840F00200086014
:102D00000846006800F00200019000BF00BF00BF4D
:102D1000002001900846006840F00800086008465E
:102D2000006800F00800019000BF00BF4FF6FF7080
:102D30000290032003900020049002A91348FFF79B
:102D400035F849F6FF7002900320039000200490AC
:102D500002A90F48FFF72AF84CF6FF400290032023
:102D600003900020049002A90A48FFF71FF80420EE
:102D70000290032003900020049002A90648FFF768
:102D800015F807B000BD00003038024000080240CE
:102D90000000024000040240000C024000BFFEE7B9
:102DA0002DE9FF4F85B082460D46CDF810A028468C
:102DB000E91705EB91718F10079E2C4803902C4862
:102DC0000290DDF810A00AEB87000190C7F1000B1C
:102DD0001AE0019850F82B90039809FB00F90F2195
:102DE000484601F0F1F88146029809FB00F986EAAD
:102DF00009060D21304601F0E7F8064606EB86008D
:102E00001C4946180BF1010BBBF1000FE1D10498EE
:102E100000EB8708002405F0030001280DD00228EC
:102E200006D0032817D198F8020084EA004400BFB6
:102E300098F8010084EA002400BF98F8000044409C
:102E4000039844430F21204601F0BEF8044602983F
:102E50004443664000BF00BF6E40304600F096F924
:102E600006460898066009B0BDE8F08F512D9ECC4B
:102E70009335871B646B54E600BFFEE700BF41F249
:102E8000883000F0C7F9024801F006FBF7E70000C0
:102E9000AC00002010B54FF0E020006902F0D8F837
:102EA000012801D001F022FD10BD000000B593B053
:102EB000302107A8FDF7F6FB142102A8FDF7F2FB6D
:102EC00000BF002001902548006840F08050234951
:102ED00008600846006800F08050019000BF00BF05
:102EE00000BF002001901E48006840F480401C494B
:102EF00008600846006800F48040019000BF00BFF1
:102F00000220079001200A9010200B9002200D90C3
:102F100000210E9108210F91A821109102211191F9
:102F20000421129107A8FFF799FA08B1FEF729F9D1
:102F30000F20029002200390002004904FF4A05034
:102F400005904FF480500690052102A8FFF734F950
:102F500008B1FEF716F913B000BD0000403802407A
:102F6000007000400348006840F4700001490860A8
:102F70007047000088ED00E010B50248FFF747FDFC
:102F800010BD0000FC02002010B50268294B9842D9
:102F90000ED0B0F1804F0BD0274B984208D0274B72
:102FA000984205D0264B984202D0264B984203D136
:102FB00022F070024B681A431E4B984220D0B0F1A9
:102FC000804F1DD01C4B98421AD01C4B984217D0F2
:102FD0001B4B984214D01B4B984211D01A4B98426D
:102FE0000ED01A4B98420BD0194B984208D0194B6F
:102FF000984205D0184B984202D0184B984203D102
:1030000022F44072CB681A4322F080034C6943EAF1
:10301000040202608B68C3620B688362054B9842AE
:1030200002D0084B984201D10B690363012343612D
:1030300010BD0000000001400004004000080040F6
:10304000000C0040000401400040014000440140E9
:103050000048014000180040001C004000200040D3
:1030600000BFFEE702480068C0F30220704700007E
:103070000CED00E010B5002804DB0A07130E054A2A
:10308000135406E00A07140E034A00F00F031B1F37
:10309000D45410BD00E400E018ED00E0EFF305802B
:1030A000704780F31088704710B504462046FDF73E
:1030B00051FD10BD70B505460E46144604F00300E0
:1030C00008B1082070BD224631462846FDF7DAFED9
:1030D000F8E72DE9F04105460E4614461F4604F078
:1030E000030010B10820BDE8F0813B46224631467E
:1030F0002846FDF785FEF6E72DE9F04707463E46F0
:1031000056B900BF502080F31188BFF34F8FBFF333
:103110006F8F00BF00BFFEE717480068864201D1ED
:10312000002426E001F016F875691448D0F80080F4
:103130001348D0F8009001F037F8454501D04D45CF
:1031400001D1022415E00F4885420BD1B06A38B98D
:1031500096F85800012801D102240AE0032408E06F
:10316000022406E00848854200D00DB9042400E09E
:1031700001242046BDE8F087280000202C00002014
:1031800030000020540800204008002080EA104051
:103190000449484380EA50300349484380EA1040DC
:1031A000704700006BCAEB8535AEB2C21CB5FEF7A6
:1031B00009FFFFF77BFEFFF767FDFFF705FDFFF750
:1031C00027FDFFF741FD01A8FFF76EFF08B1FDF7EE
:1031D000D8FF0CA400200090042269462046FFF787
:1031E00069FF08B10A48009001AB042269462046F5
:1031F000FFF76FFF00F01EF8FFF736FD00F030F824
:1032000000BFFEE764665F746573745F6B65790089
:103210007856341270B50546FFF740FF10B16FF0D5
:10322000050404E0002415B1284601F0B9F8204651
:1032300070BD000010B5FFF731FF10B16FF005044D
:1032400009E00648006820B901200449086000240C
:1032500001E04FF0FF34204610BD00007C0000204C
:1032600070B5FFF71BFF10B16FF005041FE01148A8
:103270000068012819D100BF801F0021002804DB4D
:103280000A07130E0C4A135406E00A07150E0B4AE0
:1032900000F00F031B1FD55400BF00BF02200549DB
:1032A000086001F0A9F9002401E04FF0FF34204646
:1032B00070BD00007C00002000E400E018ED00E09C
:1032C0002DE9FF4780468946144600200390FFF70A
:1032D000E5FE00284FD1B8F1000F4CD04FF48076B6
:1032E00018258246471E44B3206808B1D4F800A0D0
:1032F000A06900B1A5692DB1382D03D8207900F05F
:10330000010018B1002004B0BDE8F087606908B181
:1033100060698608A06840B1E068602805D320692C
:1033200018B1606908B1012708E0A06830B9E06809
:1033300020B9206910B9002700E00027012F0CD127
:103340002169A0684B463246CDE9005102905146B2
:10335000404601F01FFE03900DE067B903A8B2B22A
:103360004B465146CDE90050404601F0E1FD0128B1
:1033700001D0002003900398C5E700002DE9F0413B
:1033800005460E461648076816480068001D00F0FE
:1033900024FE681C38B936B112480168091D12486C
:1033A00000F0CBFE1AE07C190E4800684460BC4275
:1033B00007D20C480168091D0C48006800F0A3FE04
:1033C0000CE008480168091D0948006800F09BFEF0
:1033D00008480068844201D206480460BDE8F081D4
:1033E0004000002028000020540800203000002069
:1033F0002C0000205C00002010B5044600F0AAFE5E
:1034000024480068401C234908602348006840B9EC
:10341000214804600846006801280DD100F0FCF93D
:103420000AE01E48006838B91B480068C06AE16AB3
:10343000884201D81848046019480068401C18499F
:1034400008600846006860641649E06A09688842B6
:1034500002D91449E06A0860E16A01EB8101124A6D
:1034600002EB8100211D00F068FE00F09DFE0B487C
:10347000006868B108480068C06AE16A884207D2FB
:103480004FF0805009490860BFF34F8FBFF36F8F33
:1034900010BD00003C000020280000204800002053
:1034A0005800002044000020A403002004ED00E0A8
:1034B00008B500F04FFE12480068E8B9114800F066
:1034C00012FE114800F00FFE0E48104908600E4829
:1034D0000F49086000200F4B0F4A102100900A206E
:1034E00001F01EFA064908600846006820B10BA1E9
:1034F0000348006800F018FF00F056FE08BD000009
:1035000070000020680800207C080020680000206F
:103510006C00002090080020E0080020546D7251DB
:103520000000000010B516E000F014FE0C48C06862
:10353000C468201D00F051FD0A480068401E09497A
:10354000086009480068401E0749086000F02CFE2A
:10355000204600F05FF8044800680028E4D110BD60
:10356000400800203C0000203400002070B50446D4
:103570000D46206C70B1216CE0680144E160D4E933
:103580000210884201D32168E1602846226CE1687C
:10359000FDF73BF870BD2DE9F04104460F46154696
:1035A0004FF00008A66B206C48B9206800282CD189
:1035B000A06801F005FE80460020A06025E07DB9EE
:1035C0003946226C6068FDF720F8216C6068084479
:1035D0006060D4E90101884217D32068606014E07C
:1035E0003946226CE068FDF710F8216CE068411A5A
:1035F000E1602168E068884203D2216CA068411A2A
:10360000E160022D01D106B1761E701CA063404618
:10361000BDE8F08110B5044694F8590030B9206B2C
:1036200000F0E0FD204600F0DDFD1AE094F85900BE
:10363000012803D1204600F0D5FD12E094F859008E
:10364000022801D1012000E0002050B900BF502025
:1036500080F31188BFF34F8FBFF36F8F00BF00BFA0
:10366000FEE710BD0146084A126812680AB9012235
:1036700000E000220A600A6822B9034A1268D26890
:10368000106800E0002070476800002030B54FF45B
:103690003443174800F007042CB1C01D20F0070088
:1036A000134C041B1B1B0246124C22600024114DBC
:1036B0006C60D018083820F007000F4C2060002400
:1036C0000D4D2D686C600C4D2D682C601146441A10
:1036D0004C60094C24680C60084D4C682C60084D07
:1036E0004C682C604FF00044064D2C6030BD00004B
:1036F000401600208000002088000020900000205C
:103700008C0000209C00002000BFFFF70BFF064844
:1037100000680128F9D94FF0805004490860BFF3D0
:103720004F8FBFF36F8FF0E7A403002004ED00E09C
:103730002DE9F04106460D4617469846069C0DB900
:10374000246000E02760E66325640121204601F043
:1037500057F984F84C80BDE8F0812DE9F05F82468E
:103760000E4690469B460A9F0C9C4FEA8801A52274
:10377000206BFCF78FFFA8F10100216B01EB8009A2
:1037800029F0070909F0070008B9012000E000202E
:1037900050B900BF502080F31188BFF34F8FBFF3A3
:1037A0006F8F00BF00BFFEE786B1002507E0715DA7
:1037B00004F134004155705D00B902E06D1C102D1C
:1037C000F5D300BF00214320015502E0002084F81A
:1037D0003400382F00D33727E762E76400202065E4
:1037E000201D00F08DFC04F1180000F089FC24611C
:1037F000C7F13800A06164620020606584F8580059
:103800005A465146484600F0C9FB20600B9808B163
:103810000B980460BDE8F09F10B5002407E004EBAE
:1038200084010F4A02EB810000F05DFC641C382C1F
:10383000F5D30C4800F057FC0B4800F054FC0B4843
:1038400000F051FC0A4800F04EFC0A4800F04BFC26
:1038500004480949086004480849086010BD000090
:10386000A403002004080020180800202C080020D1
:1038700040080020540800202C00002030000020C8
:1038800010B50146164800E0006803688B42FBD380
:103890000246436813448B4204D143684C68234476
:1038A000436001460A464B6813440468A34211D1A1
:1038B0000C4C03682468A34208D04B680468646811
:1038C00023444B6003681B680B6005E0054B1B68D5
:1038D0000B6001E003680B60884200D0016010BDFE
:1038E00080000020880000202DE9F04104460D46AC
:1038F00016461F464FF0000865602461B5420CD89B
:10390000F01BA169884202D34FF0010811E0211D8C
:103910000948006800F0F7FB0BE0BE4204D2BD424C
:1039200002D34FF0010804E0211D0448006800F0B4
:10393000EAFB4046BDE8F0816C00002068000020F2
:1039400070B5054600F006FCA86B08B9012400E03C
:10395000002400F029FC204670BD70B5054600F03B
:10396000F9FBA86BE96B884201D1012400E0002437
:1039700000F01AFC204670BD2DE9F04707460C46C2
:1039800090460026206848B3204641684968416057
:1039900000F1080142688A4202D1416849684160E9
:1039A0004168D1F80C9000BF2046416849684160E9
:1039B00000F1080142688A4202D1416849684160C9
:1039C0004168CD6806EBC60007EB80014346012243
:1039D000284600F013FD761C4D45E5D13046BDE884
:1039E000F0870000F8B505460F461A480068C06821
:1039F000C468201D00F0F1FA94F8280000F00400DB
:103A0000E8B1A06941192B463A462046FFF76CFF02
:103A1000D8B1002003462A4601460090204601F016
:103A20002BFD064656B900BF502080F31188BFF326
:103A30004F8FBFF36F8F00BF00BFFEE705E094F824
:103A4000280020F0010084F828002046216A8847D9
:103A5000F8BD000068000020F0B587B0A0E0039832
:103A6000002811DA04AE56B900BF502080F3118847
:103A7000BFF34F8FBFF36F8F00BF00BFFEE7D6E9E4
:103A80000020B168904700BF03980028E6DB059C42
:103A9000606908B9012000E0002010B9201D00F085
:103AA0009CFA02A800F0DEF8054603980A2875D2B1
:103AB000DFE800F009050739416306083A4200BF14
:103AC00000BF00BF00BF94F8280040F0010084F858
:103AD00028000498A269811803462A462046FFF769
:103AE00003FFF8B12046216A884794F8280000F0C7
:103AF0000400B8B1002000900498A1694218002386
:103B00001946204601F0B8FC074657B900BF5020BF
:103B100080F31188BFF34F8FBFF36F8F00BF00BFDB
:103B2000FEE700BF3BE000BF94F8280020F0010052
:103B300084F8280033E000BF94F8280040F001002A
:103B400084F828000498A061A06908B1012000E071
:103B5000002050B900BF502080F31188BFF34F8F71
:103B6000BFF36F8F00BF00BFFEE7A06941192B466E
:103B70002A462046FFF7B8FE11E094F8280000F02E
:103B8000020018B9204600F02DFB05E094F828004B
:103B900020F0010084F8280001E0FFE700BF00BF2B
:103BA000002203A90448006801F0C8F800287FF447
:103BB00056AF07B0F0BD000070000020F8B5054614
:103BC0000C4600F075FD684600F04CF8064600987B
:103BD00020BB44B9B54206D801F090FB31462846D7
:103BE000FFF700FF1CE03CB10E480068006808B910
:103BF000012000E000200446A91B22460A48006874
:103C000000F0A8FB01F07AFB50B94FF08050074953
:103C10000860BFF34F8FBFF36F8F01E001F06EFBC1
:103C2000F8BD00006C0000207000002004ED00E0F2
:103C30000A490968096809B9012100E0002121B198
:103C40004FF0FF31064A116006E004490968C9686F
:103C5000C868034A41681160704700002C000020CA
:103C60005C00002070B5044601F002FA05460748E2
:103C70000068854204D200F00BF80120206001E0CA
:103C80000020206001480560284670BD78000020B3
:103C90002DE9F84334E025480068C06805682348EA
:103CA0000068C068C468201D00F097F92046216AAA
:103CB000884794F8280000F0040008B3A06946196A
:103CC000AE4207D966602461211D1848006800F0E3
:103CD0001AFA15E0002003462A46014600902046C5
:103CE00001F0CAFB074657B900BF502080F3118886
:103CF000BFF34F8FBFF36F8F00BF00BFFEE700BF62
:103D00000A480068006808B9012000E00020002887
:103D1000C1D00648D0F80080054800680349086013
:103D20000348C0F80080BDE8F88300006800002068
:103D30006C0000200246002101E0521C491C107852
:103D4000A528FAD0890888B2704700000E4800689C
:103D5000401C08B9012000E0002050B900BF5020ED
:103D600080F31188BFF34F8FBFF36F8F00BF00BF89
:103D7000FEE700BF502080F31188BFF34F8FBFF3E1
:103D80006F8F00BF00BFFEE7A000002008B500BF96
:103D90006846FFF767FC044620460099FFF70EFFD0
:103DA000FFF75AFEF4E770B5044600F0D3F994F932
:103DB000455010E0606A08B9012000E0002038B9E1
:103DC00004F1240001F04EFA18B100F0D3FB00E03A
:103DD00003E0681E45B2002DECDC00BFFF2084F834
:103DE000450000F0E1F900F0B5F994F9445010E015
:103DF000206908B9012000E0002048B904F1100052
:103E000001F030FA08B100F0B5FB681E45B200E0E1
:103E100001E0002DECDC00BFFF2084F8440000F03E
:103E2000C3F970BD70B505460E4631462846FCF70D
:103E3000A9FB2846FCF7CAFB044602E020202855CF
:103E4000641C0F2CFAD300202855281970BD0000DF
:103E50002DE9F04104464FF0000800F029FC4948E4
:103E6000006808B9FFF712FC4748006820400028A6
:103E700070D1D4B1083404F00700B0B104F00700E9
:103E8000C0F10800044404F0070008B9012000E074
:103E9000002050B900BF502080F31188BFF34F8F2E
:103EA000BFF36F8F00BF00BFFEE7002C52D0374832
:103EB000006884424ED8364E3046056801E02E46F2
:103EC0002D686868A04202D228680028F7D12D48E2
:103ED000006885423ED0306800F1080828683060EC
:103EE0006868001B102819D92F1907F0070008B9B6
:103EF000012000E0002050B900BF502080F311885D
:103F0000BFF34F8FBFF36F8F00BF00BFFEE768683E
:103F1000001B78606C603846FFF7B2FC1B4968688C
:103F20000968081A194908600846006819490968AB
:103F3000884203D21548006816490860124968682B
:103F40000968084368600020286013480068401C26
:103F50001149086001F0D2F908F0070008B9012002
:103F600000E0002050B900BF502080F31188BFF35B
:103F70004F8FBFF36F8F00BF00BFFEE74046BDE825
:103F8000F0810000880000209C0000208C000020B0
:103F9000800000209000002094000020001F4FF0BF
:103FA00080730360001F21F001030360001F054BB5
:103FB000036014380260001F6FF0020303602038B2
:103FC000704700004D3D0008024602FA01F0C1F1C1
:103FD000200322FA03F31843704701460A69D1E926
:103FE00001309860D1E9010358605068884201D1DE
:103FF00088685060002008611068401E10601068DA
:10400000704700002DE9F041054688461646002419
:10401000382700F04DFB21480068804539D300BFA8
:104020007F1E07EB87021E4B03EB820104EBC402E9
:1040300005EB82000122FFF79FFC0444002FEFD123
:1040400004EBC40105EB8100022216490968FFF761
:1040500093FC044404EBC40105EB810002221249E5
:104060000968FFF789FC044404EBC40105EB8100F7
:1040700004220E49FFF780FC044404EBC40105EB65
:10408000810003220A49FFF777FC04440EB10020A7
:10409000306001F033F92046BDE8F0813C0000209B
:1040A000A40300202C000020300000204008002045
:1040B00054080020034B0360034B0B604FF48073E4
:1040C0001360704780090020E0090020034B036063
:1040D000034B0B604FF4007313607047E00D00203A
:1040E000400E0020704700F1080141604FF0FF31A1
:1040F000816000F10801C160016100210160704729
:1041000000210161704710B502460B685C1C0CB9B8
:10411000106907E002F1080000E040684468246884
:104120009C42FAD944684C604C68A1608860416048
:104130000A611468641C146010BD42684A60936888
:104140008B60936859609160086103685B1C036031
:104150007047000000BF502080F31188BFF34F8FDD
:10416000BFF36F8F00BF0E480068401C0C49086009
:1041700008460068012812D10A480068C0B208B990
:10418000012000E0002050B900BF502080F31188CA
:10419000BFF34F8FBFF36F8F00BF00BFFEE77047C5
:1041A000A000002004ED00E00D48006850B900BFF9
:1041B000502080F31188BFF34F8FBFF36F8F00BF84
:1041C00000BFFEE706480068401E05490860084633
:1041D000006820B9002080F3118800BF00BF70473D
:1041E000A000002070B506463546002E44D0083D9C
:1041F0002C46224960680968084008B1012000E0A7
:10420000002050B900BF502080F31188BFF34F8FBA
:10421000BFF36F8F00BF00BFFEE7206808B9012021
:1042200000E0002050B900BF502080F31188BFF398
:104230004F8FBFF36F8F00BF00BFFEE70F4960686D
:1042400009680840C0B12068B0B90C4960680968C5
:104250008843606000F02CFA0949606809680844E6
:10426000074908602046FFF70BFB06480068401C22
:104270000449086001F042F870BD00009C00002075
:104280008C0000209800002000204FF0E021086101
:104290008861064800684FF47A71B0FBF1F0401E67
:1042A0004FF0E0214861072008617047240000209A
:1042B00070B5FCF71DF80446102C16D304F1E0206D
:1042C00090F8F05315480078854201DB012000E0AA
:1042D000002050B900BF502080F31188BFF34F8FEA
:1042E000BFF36F8F00BF00BFFEE70D48006800F40A
:1042F000E0600C490968884201D8012000E00020F4
:1043000050B900BF502080F31188BFF34F8FBFF327
:104310006F8F00BF00BFFEE770BD0000A40000204B
:104320000CED00E0A8000020024600200BE0084B46
:1043300053F8303033B9064B43F8301003EBC00369
:104340005A6002E0401C0828F1D300BF704700000B
:10435000640300202DE9F04105460E4617462C4621
:10436000FFF7F8FE94F94400401C10B9002084F8CF
:10437000440094F94500401C10B9002084F8450021
:10438000FFF712FFA06B28B93A46314604F124002A
:1043900000F012F92046FFF706FDBDE8F0810000AD
:1043A00070B504460025D4B11248006808B9012050
:1043B00000E0002050B900BF502080F31188BFF307
:1043C0004F8FBFF36F8F00BF00BFFEE700F070F9A3
:1043D00000212046FEF7D2FF00F090FF05463DB9D0
:1043E0004FF0805004490860BFF34F8FBFF36F8FC9
:1043F00070BD00006400002004ED00E02DE9F041F4
:1044000007460C4690461E4617B91C48006800E057
:1044100038460546256005F134006060E86A206191
:10442000286BE061686CA060E86C60610020A061AE
:10443000052E12D011480068854202D10020207359
:104440000FE02673032E0CD100F032F9A86A08B1F0
:104450000220207300F052FF03E02846FEF74CFED6
:104460002073B8F1000F04D0286BFFF763FC2084A1
:1044700001E000202084BDE8F08100002800002039
:1044800003490968016003490968416070470000F9
:1044900054000020400000202DE9FC410646002089
:1044A00030702F4807680146096801EBC101880098
:1044B000FFF7CEFC0546002D50D000223946284695
:1044C000FFF7A0FD0746002443E004EBC40005EB22
:1044D0008000007B062813D2DFE800F00306090CF9
:1044E0000F134FF058080FE04FF052080CE04FF058
:1044F000420809E04FF0530806E04FF0440803E09B
:1045000000BF4FF0000800BF00BF04EBC40005EB84
:10451000800041683046FFF785FC064604EBC40086
:1045200005EB8000806804EBC40105EB8101098C78
:10453000CDE9001004EBC40005EB8000424609A160
:1045400003693046FBF770FF3046FCF73FF806443E
:10455000641CBC42B9D32846FFF744FEBDE8FC8189
:104560003C00002009256309257509257509257575
:104570000D0A00000120014908607047500000202A
:1045800070B504460D4654B900BF502080F3118821
:10459000BFF34F8FBFF36F8F00BF00BFFEE705482B
:1045A000016818312046FFF7AEFD01212846FEF7CD
:1045B000E5FE70BD2800002070B505460E46144685
:1045C00055B900BF502080F31188BFF34F8FBFF360
:1045D0006F8F00BF00BFFEE706480168183128460C
:1045E000FFF7ABFD0CB14FF0FF3621463046FEF72A
:1045F000C5FE70BD2800002010B586B000200590D3
:10460000049003AA04A905A8FFF754FD0022DDE9E0
:1046100004101346CDE9002102901EA11F48039A01
:1046200000F0B8FC1E4908600846006808B1012483
:1046300000E00024012C02D100F0E2FE0446012C2F
:1046400015D100BF502080F31188BFF34F8FBFF307
:104650006F8F00BF4FF0FF301249086001201249F0
:10466000086000201149086000F08CF810E0601C20
:1046700008B1012000E0002050B900BF502080F3B5
:104680001188BFF34F8FBFF36F8F00BF00BFFEE7EE
:1046900006B010BD49444C45000000000937000831
:1046A000600000205C000020480000204000002046
:1046B00002480068401C01490860704764000020FF
:1046C00010B52A48006818B10120294908604BE05C
:1046D00000202749086027480068006825490968C4
:1046E000096B884205D82348016834310068FFF718
:1046F000F9FC214800681F490968C8651F4801681E
:104700000CE051B900BF502080F31188BFF34F8FE8
:10471000BFF36F8F00BF00BFFEE7491E01EB8100B2
:10472000174A52F8200008B9012000E000200028B4
:10473000E7D101EB8102124B03EB82004268526821
:10474000426000F108024368934202D14268526815
:1047500042604268D268074B1A60084801601846F8
:104760000068C06D0449086010BD000064000020AE
:1047700050000020280000203800002044000020C5
:10478000A40300201CB5524800685249884201D059
:10479000012000E0002050B900BF502080F31188B4
:1047A000BFF34F8FBFF36F8F00BF00BFFEE74848D6
:1047B00000684849491E884201D0012000E00020DD
:1047C00050B900BF502080F31188BFF34F8FBFF363
:1047D0006F8F00BF00BFFEE73F4908460078019099
:1047E000FF200A4610700846007800909DF80000EF
:1047F00000F0F0009DF80020904201D1012000E07F
:10480000002050B900BF502080F31188BFF34F8FB4
:10481000BFF36F8F00BF00BFFEE79DF8000000F000
:1048200050002E4A107007202D4A106009E02C48D5
:104830000068401E2A4A10609DF800004006000EE5
:1048400000909DF8000000F080008028EFD0244800
:104850000068C0F10700042801D1012000E0002019
:1048600050B900BF502080F31188BFF34F8FBFF3C2
:104870006F8F00BF00BFFEE7194800680002184AAA
:1048800010601046008800F4E0601060124A019841
:1048900010700F482030006840F470000C4920313F
:1048A00008600846006840F070400860FFF7ECFCC4
:1048B00000200C490860FBF7E3FC0B48006840F05F
:1048C000404009490860FBF7C7FC00201CBD000000
:1048D00000ED00E071C20F4100E400E0A400002000
:1048E000A8000020A000002034EF00E010B500BFB9
:1048F000502080F31188BFF34F8FBFF36F8F00BF3D
:1049000000F0BCFB18B14FF080500449086000BFB4
:10491000002080F3118800BF10BD000004ED00E00E
:104920002DE9F84380460E4617461D46DDF82090D7
:10493000B8F1000F01D0012000E0002050B900BF05
:10494000502080F31188BFF34F8FBFF36F8F00BFEC
:1049500000BFFEE70DB1012000E0002050B900BF0C
:10496000502080F31188BFF34F8FBFF36F8F00BFCC
:1049700000BFFEE707B10EB1012000E0002050B9F2
:1049800000BF502080F31188BFF34F8FBFF36F8FAC
:1049900000BF00BFFEE707B90EB9012000E000200C
:1049A00050B900BF502080F31188BFF34F8FBFF381
:1049B0006F8F00BF00BFFEE7502000900098502886
:1049C00001D1012000E0002050B900BF502080F349
:1049D0001188BFF34F8FBFF36F8F00BF00BFFEE79B
:1049E00000BF2C464CB1012084F846004B463A46A5
:1049F000314640460094FEF79BFE2046BDE8F88312
:104A000070B505460E462C4654B900BF502080F3C1
:104A10001188BFF34F8FBFF36F8F00BF00BFFEE75A
:104A2000FFF798FBD4E90F12206801FB0200A06099
:104A30000020A06320686060E06B401E226C21684B
:104A400000FB0211E160FF2084F8440084F8450077
:104A50009EB9206908B9012000E00020A8B904F13E
:104A6000100000F0FFFB80B14FF080500949086052
:104A7000BFF34F8FBFF36F8F07E004F11000FFF714
:104A800032FB04F12400FFF72EFBFFF78DFB012022
:104A900070BD000004ED00E02DE9FF4383B0064641
:104AA00088461D464FF00009344654B900BF5020D7
:104AB00080F31188BFF34F8FBFF36F8F00BF00BF2C
:104AC000FEE7B8F1000F01D1206C08B9012000E029
:104AD000002050B900BF502080F31188BFF34F8FE2
:104AE000BFF36F8F00BF00BFFEE7022D02D1E06B66
:104AF000012801D1012000E0002050B900BF502062
:104B000080F31188BFF34F8FBFF36F8F00BF00BFDB
:104B1000FEE700F09DFA08B9059808B9012000E009
:104B2000002050B900BF502080F31188BFF34F8F91
:104B3000BFF36F8F00BF00BFFEE700BFFFF70AFBA8
:104B4000A06BE16B884201D3022D28D12A46414651
:104B50002046FEF720FD0746606A08B9012000E004
:104B6000002068B904F1240000F07CFB88B14FF00C
:104B7000805032490860BFF34F8FBFF36F8F08E05A
:104B80003FB14FF080502D490860BFF34F8FBFF306
:104B90006F8FFFF709FB012007B0BDE8F083059890
:104BA00018B9FFF701FB0020F6E7B9F1000F04D1B7
:104BB00001A8FFF765FC4FF00109FFF7F5FAFFF7D1
:104BC00077FDFFF7C7FA94F94400401C10B90020A4
:104BD00084F8440094F94500401C10B9002084F882
:104BE0004500FFF7E1FA05A901A800F05BF9F0B96B
:104BF0002046FEF7B2FEA0B104F110000599FFF7C0
:104C0000BFFC2046FFF7CFF800F078FB002895D1D5
:104C10004FF0805009490860BFF34F8FBFF36F8F8B
:104C20008CE72046FFF7BFF800F068FB86E72046D8
:104C3000FFF7B9F800F062FB0020ADE704ED00E0FB
:104C40002DE9F84F07468A4690461E463C4654B921
:104C500000BF502080F31188BFF34F8FBFF36F8FD9
:104C600000BF00BFFEE7BAF1000F01D1206C08B908
:104C7000012000E0002050B900BF502080F31188CF
:104C8000BFF34F8FBFF36F8F00BF00BFFEE7022E51
:104C900002D1E06B012801D1012000E0002050B9D1
:104CA00000BF502080F31188BFF34F8FBFF36F8F89
:104CB00000BF00BFFEE7FFF7FBFA00BF5021EFF394
:104CC000118081F31188BFF34F8FBFF36F8F00BF47
:104CD0000546A06BE16B884201D3022E25D194F9E1
:104CE00045B0A06B0090324651462046FEF753FC7B
:104CF0000BF1010088B9606A08B9012000E00020CA
:104D000050B904F1240000F0ADFA28B1B8F1000F59
:104D100002D00120C8F8000004E00BF1010040B20D
:104D200084F845004FF0010901E04FF0000900BF91
:104D300085F3118800BF4846BDE8F88F2DE9F7419B
:104D400083B005460E464FF000082C4654B900BF0C
:104D5000502080F31188BFF34F8FBFF36F8F00BFD8
:104D600000BFFEE70EB9206C08B9012000E000206A
:104D700050B900BF502080F31188BFF34F8FBFF3AD
:104D80006F8F00BF00BFFEE700F062F908B9059819
:104D900008B9012000E0002050B900BF502080F386
:104DA0001188BFF34F8FBFF36F8F00BF00BFFEE7C7
:104DB00000BFFFF7CFF9A76BF7B131462046FEF7EA
:104DC000D5FB781EA063206908B9012000E000200F
:104DD00060B904F1100000F045FA38B14FF080508E
:104DE0002F490860BFF34F8FBFF36F8FFFF7DCF9D8
:104DF000012006B0BDE8F081059818B9FFF7D4F995
:104E00000020F6E7B8F1000F04D101A8FFF738FB46
:104E10004FF00108FFF7C8F9FFF74AFCFFF79AF9CE
:104E200094F94400401C10B9002084F8440094F91F
:104E30004500401C10B9002084F84500FFF7B4F984
:104E400005A901A800F02EF8F0B92046FEF778FD7C
:104E5000A0B104F124000599FFF792FB2046FEF76C
:104E6000A2FF00F04BFA0028A3D14FF080500C496C
:104E70000860BFF34F8FBFF36F8F9AE72046FEF7AE
:104E800092FF00F03BFA94E72046FEF78CFF00F01B
:104E900035FA2046FEF754FD00288AD00020A8E706
:104EA00004ED00E070B505460C4655B900BF502032
:104EB00080F31188BFF34F8FBFF36F8F00BF00BF28
:104EC000FEE754B900BF502080F31188BFF34F8F25
:104ED000BFF36F8F00BF00BFFEE7FFF73BF912483B
:104EE00002686868131A2068401C08B9002617E099
:104EF0000E4928680968884204D06868904201D841
:104F000001260DE02068984207D92068C01A206069
:104F10002846FFF7B5FA002602E0002020600126AF
:104F2000FFF742F9304670BD4000002054000020D9
:104F30002DE9FF4F85B0804689461746DDE912AB63
:104F4000B800FEF785FF064656B16020FEF780FFE9
:104F500004460CB1266304E03046FFF743F900E055
:104F600000248CB1002084F85900CDE900ABCDE9D4
:104F700002403A4649464046089BFEF7EEFB204673
:104F8000FEF73AFA012501E04FF0FF35284609B057
:104F9000BDE8F08F2DE9F04F85B007468846914671
:104FA0009A46DDE90EB6109C0EB1012000E000200B
:104FB00050B900BF502080F31188BFF34F8FBFF36B
:104FC0006F8F00BF00BFFEE70CB1012000E00020A2
:104FD00050B900BF502080F31188BFF34F8FBFF34B
:104FE0006F8F00BF00BFFEE760200390039860282A
:104FF00001D1012000E0002050B900BF502080F313
:105000001188BFF34F8FBFF36F8F00BF00BFFEE764
:1050100000BFB4B1AEB125462C462E63022085F800
:105020005900002004A953464A46CDE900B1CDE914
:10503000025041463846FEF790FB2846FEF7DCF961
:1050400001E000200490049805B0BDE8F08F000056
:105050000549096809B9012005E00449096809B949
:10506000022000E00020704748000020640000207B
:105070000149086870470000400000202DE9F04118
:105080004FF000084348006800287BD14248006880
:10509000451C4148056015BB40480068006808B9D8
:1050A000012000E0002050B900BF502080F311889B
:1050B000BFF34F8FBFF36F8F00BF00BFFEE73748CE
:1050C0000768374800683549086035480760354843
:1050D0000068401C33490860FEF7AAFD00BF324853
:1050E000006885423BD300BF2C480068006808B9BF
:1050F000012000E0002020B14FF0FF302A49086075
:105100002CE026480068C068C4686668B54202D2D0
:105110002548066022E0201DFEF75FFFA06A18B157
:1051200004F11800FEF759FF2049E06A0968884237
:1051300002D91E49E06A0860E16A01EB81011C4A5C
:1051400002EB8100211DFEF7F8FF1A49E06A0968A9
:10515000C96A8842C8D34FF00108C5E700BF1548A7
:105160000068C06A00EB8000114951F82000012856
:1051700001D94FF001081048006808B14FF001084C
:1051800005E0FFE70D480068401C0C4908604046F8
:10519000BDE8F08164000020400000202C000020C9
:1051A00030000020540000205C000020440000205B
:1051B000A403002028000020500000204C00002004
:1051C00070B505462C460026002D43D022480068C5
:1051D000844201D1012000E0002050B900BF5020DE
:1051E00080F31188BFF34F8FBFF36F8F00BF00BFF5
:1051F000FEE7206D50B900BF502080F31188BFF347
:105200004F8FBFF36F8F00BF00BFFEE7206D401EC2
:105210002065E16CE06A88421CD0206DD0B9201D69
:10522000FEF7DBFEE06CE062E06AC0F13800A061EE
:105230000A49E06A0968884202D90849E06A0860B8
:10524000E16A01EB8101064A02EB8100211DFEF7B4
:1052500074FF0126304670BD280000204400002065
:10526000A403002070B50646F068C46854B900BFB6
:10527000502080F31188BFF34F8FBFF36F8F00BFB3
:1052800000BFFEE704F11800FEF7A7FE154800680E
:10529000A0B9201DFEF7A1FE1349E06A0968884203
:1052A00002D91149E06A0860E16A01EB81010F4A05
:1052B00002EB8100211DFEF740FF04E004F118011C
:1052C0000B48FEF73AFF0B49E06A0968C96A884251
:1052D00004D9012501200849086000E0002528467E
:1052E00070BD00006400002044000020A4030020E2
:1052F0002C080020280000205000002070B5002459
:1053000000263648006850B900BF502080F311884D
:10531000BFF34F8FBFF36F8F00BF00BFFEE7FEF7F5
:1053200019FF2E480068401E2C4908600846006896
:1053300000284ED12A48006800284AD023E0294896
:10534000C068C46804F11800FEF747FE201DFEF790
:1053500044FE2549E06A0968884202D92249E06A88
:105360000860E16A01EB8101204A02EB8100211D06
:10537000FEF7E3FE1E49E06A0968C96A884202D363
:1053800001201C4908601748006808B9012000E0A6
:1053900000200028D3D00CB1FEF74AFC164805685F
:1053A00065B100BFFFF76AFE10B101201149086026
:1053B0006D1E002DF6D100200F4908600D480068D1
:1053C00038B1012630070D490860BFF34F8FBFF396
:1053D0006F8FFEF7E9FE304670BD000064000020CC
:1053E0003C0000202C08002044000020A4030020E2
:1053F00028000020500000204C00002004ED00E0B8
:1054000010B586B00024FEF753F816480068D0B1F6
:1054100000200590049003AA04A905A8FEF756FEF3
:105420000222DDE904100023CDE9002102900EA143
:105430000F48039AFFF7AEFD0E4908600846006862
:1054400000B1012400BF54B900BF502080F311887F
:10545000BFF34F8FBFF36F8F00BF00BFFEE7204643
:1054600006B010BD70000020546D722053766300AA
:105470008D3D0008740000202DE9FF4704460D46CD
:1054800016461F46DDF830804FF0000954B900BFC2
:10549000502080F31188BFF34F8FBFF36F8F00BF91
:1054A00000BFFEE71448006810B30095019602940F
:1054B000062D15DAFFF7CCFD022808D1002342465D
:1054C00069460D480068FFF7E7FA814610E00023BF
:1054D0001A46694608480068FFF7DEFA814607E089
:1054E00000233A46694604480068FFF7A9FB814655
:1054F000484604B0BDE8F087700000204FF04070CF
:10550000E1EE100A7047000044550008000000005A
:105510000000000000000000000000000008000083
:105520001800000000000000000000000000000063
:105530000000000001020304060708090000000043
:105540000102030464656661756C745461736B00D9
:105550007055000800000020AC000000C4010008E5
:105560001C560008AC00002024DD0000E00100080B
:10557000000000000000000000000000000000002B
:10558000000000000000000000000000100000000B
:10559000010000000024F4000000000000000000F2
:1055A00000000000000000000000000000000000FB
:1055B00000000000000000000000000000000000EB
:1055C00000000000000000000000000000000000DB
:1055D00000000000000000000000000000000000CB
:1055E00000000000000000000000000000000000BB
:1055F00000000000000000000000000000000000AB
:10560000000000000000000000000000000000009A
:0C561000AAAAAAAA0000000000000000E6
:040000050800018965
:00000001FF
